:020000040800F2
:1000000070460020F5020008FB100008F7100008F9
:10001000F9100008D705000865120008000000006C
:100020000000000000000000000000003502000891
:10003000D905000800000000910200080511000821
:100040000F0300080F0300080F0300080F03000848
:100050000F0300080F0300080F0300080F03000838
:100060000F0300080F0300080F0300080F03000828
:100070000F0300080F0300080F0300080F03000818
:100080000F0300080F0300080F0300080000000022
:100090000000000000000000000000000F03000846
:1000A0000F030008C11100080F0300080F03000828
:1000B0000F0300080F0300080F0300080F030008D8
:1000C0000F0300080F0300080F0300080F030008C8
:1000D0000F0300080F0300080F03000800000000D2
:1000E0000F0300080F0300080F03000800000000C2
:1000F0000000000000000000000000000F030008E6
:10010000000000000F0300080F0300080F030008A1
:1001100000000000000000000000000000000000DF
:100120000F0300080F0300080F0300080F03000867
:100130000F030008000000000000000000000000A5
:100140000000000000000000000000000F03000895
:100150000F0300080F0300080F0300080F03000837
:100160000F0300080F03000800000000000000005B
:10017000000000000000000000000000000000007F
:10018000000000000F030008000000000000000055
:100190000F03000800F002F800F03CF80AA090E815
:1001A000000C82448344AAF10107DA4501D100F032
:1001B00031F8AFF2090EBAE80F0013F0010F18BFC3
:1001C000FB1A43F001031847FC2100001C22000029
:1001D000103A24BF78C878C1FAD8520724BF30C873
:1001E00030C144BF04680C60704700000023002445
:1001F00000250026103A28BF78C1FBD8520728BF37
:1002000030C148BF0B6070471FB502F0B5F81FBD85
:1002100010B510BD00F0A6F91146FFF7F5FF01F08B
:1002200033F800F0C4F903B4FFF7F2FF03BC00F0A9
:10023000CBF900002C4B19680868B0E8F04F80F348
:100240000988BFF36F8F4FF0000080F3118870476B
:100250000000000008480068006880F308884FF03C
:10026000000080F3148862B661B6BFF34F8FBFF30E
:100270006F8F00DF00BF00BF08ED00E0DFF80C006B
:10028000016841F470010160704700BF88ED00E033
:10029000EFF30980BFF36F8F134B1A681EF0100F36
:1002A00008BF20ED108A20E9F04F106009B44FF02C
:1002B000500080F31188BFF34F8FBFF36F8F01F0B1
:1002C0007DFC4FF0000080F3118809BC19680868B4
:1002D000B0E8F04F1EF0100F08BFB0EC108A80F3AA
:1002E0000988BFF36F8F704718000020EFF3058077
:1002F000704700000948804709480047FEE7FEE7CD
:10030000FEE7FEE7FEE7FEE7FEE7FEE7FEE7FEE7C5
:1003100004480549054A064B70470000B111000822
:1003200095010008704000207046002070420020B7
:100330007042002053EA020C00F069802DE9F04B76
:100340004FF00006002B1FBFB3FA83F503FA05F444
:1003500024FA05F65E4012BF1643B2FA82F502FA9D
:1003600005F4C5F120051EBF22FA05FC44EA0C0481
:10037000203556EA044C4FEA144418BF641C4FF071
:1003800000084FF00009904271EB030C39D30029AB
:1003900019BFB1FA81F701FA07F6B0FA80F700FA4F
:1003A00007F6C7F120071EBF20FA07FC46EA0C0635
:1003B0002037B6FBF4FCA7EB0507103F07F01F0B37
:1003C000CBF120060CFA0BFB2CFA06F644BFB34621
:1003D0000026202FA4BF5E464FF0000B5BEA060C00
:1003E00008BF4FF0010B19EB0B09ABFB027C48EB8C
:1003F0000608C01B06FB02CC0BFB03CC71EB0C0107
:10040000C1E70B46024641464846BDE8F08B13B5AE
:100410004FF000004FF00001AFF30080BDE81C403A
:100420007047032A40F2308010F0030C00F0158072
:1004300011F8013BBCF1020F624498BF11F801CBE7
:1004400000F8013B38BF11F8013BA2F1040298BF4C
:1004500000F801CB38BF00F8013B11F0030300F0B6
:100460002580083AC0F0088051F8043B083A51F85A
:1004700004CBA0E80810F5E7121D5CBF51F8043B5F
:1004800040F8043BAFF30080D20724BF11F8013BD2
:1004900011F801CB48BF11F8012B24BF00F8013B34
:1004A00000F801CB48BF00F8012B704710B5203A87
:1004B000C0F00B80B1E81850203AA0E81850B1E81D
:1004C0001850A0E81850BFF4F5AF5FEA027C24BFD3
:1004D000B1E81850A0E8185044BF18C918C0BDE8CA
:1004E00010405FEA827C24BF51F8043B40F8043B93
:1004F00008BF7047D20728BF31F8023B48BF11F848
:10050000012B28BF20F8023B48BF00F8012B7047A1
:100510004FF0000200B5134694469646203922BF9C
:10052000A0E80C50A0E80C50B1F12001BFF4F7AFE7
:10053000090728BFA0E80C5048BF0CC05DF804EBC9
:10054000890028BF40F8042B08BF704748BF20F837
:10055000022B11F0804F18BF00F8012B7047704735
:1005600070477047754600F02BF8AE4605006946A7
:10057000534620F00700854618B020B5FFF7C8FEA7
:10058000BDE820404FF000064FF000074FF0000894
:100590004FF0000B21F00701AC46ACE8C009ACE815
:1005A000C009ACE8C009ACE8C0098D46704710B579
:1005B0000446AFF300802046BDE81040FFF733BE8D
:1005C000004870470C40002001491820ABBEFEE7F0
:1005D000260002007047FEE7704700002DE9F84F43
:1005E000DFF8B8A1002201240AF1040B03254FF023
:1005F0000F090BF1040E00BF0B6804FA02F633403A
:10060000B34273D10F7907F00307012F01D0022FF6
:1006100016D187684FEA420805FA08FC27EA0C075A
:10062000D1F80CC00CFA08FC4CEA070CC0F808C062
:100630004768B7430E79C6F3001696403E434660BE
:100640000E79F643B6070DD0C768560005FA06FCCA
:1006500027EA0C07D1F808C00CFA06FC4CEA070C94
:10066000C0F80CC00E7906F00306022E10D1D60891
:1006700000EB8608D8F8206057074FEAD76C09FAD4
:100680000CF7BE430F6907FA0CF73743C8F8207020
:1006900006684FEA420C05FA0CF7BE430F7907F0E3
:1006A000030707FA0CF7374307604E6816F4403F1C
:1006B0006DD03B4E376847F480473760366822F08C
:1006C000030706F480460096364E07EB060CDCF86E
:1006D000086897073F0F09FA07F826EA0806DFF8C7
:1006E000C880404503D14FF000081EE04FE0DFF81E
:1006F000BC80404502D14FF0010816E0DFF8B08021
:10070000404502D14FF002080FE0DFF8A8804045D5
:1007100002D14FF0030808E0DFF89C80404502D189
:100720004FF0040801E04FF0070808FA07F848EA1C
:100730000608CCF80888DAF800605746D1F804C0FB
:100740009E435FEACC3C00D51E433E60DBF8006070
:100750005F46D1F804C09E435FEA8C3C00D51E433F
:100760003E60DEF800607746D1F804C09E435FEA41
:10077000CC2C00D51E433E60084F0C373E68D1F8A4
:1007800004C09E435FEA8C2C00D51E433E60521C81
:10079000102AFFF431AFBDE8F88F0000003C0140A3
:1007A0004438024000300140000002400004024092
:1007B00000080240000C0240001002400AB18161B2
:1007C00070470904FBE7000001488068704700009B
:1007D0000800002002488168027811448160704757
:1007E000080000200B4810B5016841F40071016059
:1007F000016841F480610160016841F48071016029
:10080000032000F08DF80F2000F006F800F03EF80D
:10081000002010BD003C024010B5014688B0002207
:10082000192000F05DF8192000F04CF8134800245E
:10083000016841F001010160006805A900F00100B4
:100840000690684600F018F900F036F90C490D4A98
:10085000B0FBF1F10C48491E026040F2E732C0E9FA
:100860000324C0E9011400F021FB10B1012008B0FD
:1008700010BD054800F048FBF9E70000443802408D
:1008800040420F0000000140D40200200C4882B01A
:10089000016841F480410160006800F480400090EC
:1008A0000748001F016841F0805101600068002284
:1008B00000F0805000900F21901E02B000F010B8A0
:1008C00044380240002809DB00F01F02012191405A
:1008D0004009800000F1E020C0F8001170470000DE
:1008E000F0B40E4B1B680C46C3F30223C3F107059B
:1008F000042D00D90425191D072901D2002300E089
:10090000DB1E012606FA05F1491E214099409E4052
:10091000761E16403143F0BC00F0A5BC0CED00E0A3
:10092000064900F0070208684FF6FF03184040EA46
:100930000220034A10430860704700000CED00E0FD
:100940000000FA052DE9F0470E46050065D0DFF8F6
:100950001481D8F80000F7B200F00700B04207D2C7
:1009600088F80070D8F8000000F00700B04254D1B9
:1009700028683D4C810712D5400703D5206840F414
:10098000E05020602878000703D5206840F46040DC
:1009900020602068A96820F0F000084320602878D3
:1009A000C0072DD0304968680839012812D00228C4
:1009B00013D0032811D00968890700292DDA21688E
:1009C00021F0030101432160FFF7FEFE814641F261
:1009D000883A0EE009688903EFE709688901ECE7C6
:1009E000FFF7F2FEA0EB0901514502D90320BDE853
:1009F000F0872068696800F00C00B0EB810FEFD140
:100A0000D8F80010404601F00701B14207D907703D
:100A1000006800F00700B04201D00120E7E7287825
:100A2000400705D52068E96820F4E05008432060BD
:100A30002878000706D52068296920F4604040EA3C
:100A4000C100206000F048F82168084AC1F3031192
:100A5000515CC8400649086006480068FFF7DCFEA4
:100A60000020C4E7003C024008380240A0230008F0
:100A7000140000200C0000200F2202600C4A1368B2
:100A800003F003034360136803F0F003836013680B
:100A900003F4E053C36012684FF4E05303EAD20258
:100AA00002610448006800F0070008607047000019
:100AB00008380240003C02400448054900680968C3
:100AC000044AC1F34231515CC84070471400002011
:100AD00008380240B0230008154810B5006810F02F
:100AE0000C02144813D01449042A0FD0082A0ED13E
:100AF0000F4C241F2268236802F03F025B0207D5D7
:100B00002068C0F38810A0FB010106E0084610BD74
:100B10002168C1F38811A1FB00010023FFF70AFC43
:100B20002168C1F30141491C4900B0FBF1F010BD3F
:100B3000083802400024F40040787D012DE9F84F88
:100B400004006ED02078DFF84C93C007A9F10405AB
:100B50004AD009F104000168C1F38101012908D0DC
:100B60000068C0F3810002280AD1D9F800004002D1
:100B700006D52868800337D560680028E1D033E0C7
:100B80006068B0F5803F10D0B0F5A02F286810D075
:100B900020F480302860286820F480202860606875
:100BA000A8B1FFF711FE06460DE0286840F480303A
:100BB000F4E740F480202860F7E700BFFFF704FE69
:100BC000801B642873D828688003F7D50CE0FFF7F2
:100BD000FBFD064605E000BFFFF7F6FD801B64281D
:100BE000F0D828688003F7D42078DFF8AC8280073B
:100BF0004FF0000A3ED5A748001D016811F00C0F08
:100C000008D00068C0F3810002280BD1D9F8000099
:100C1000400207D42868800716D5E068012800D173
:100C200012E033E1E068B8B10120C8F80000FFF736
:100C3000CBFD064605E000BFFFF7C6FD801B02287E
:100C4000C0D828688007F7D52868216920F0F80007
:100C500040EAC10028600DE0C8F800A0FFF7B4FD2D
:100C6000064604E0FFF7B0FD801B02281FD8286865
:100C70008007F7D42078000722D5864F874861691E
:100C8000703771B101210160FFF79EFD064604E057
:100C9000FFF79AFD801B022809D838688007F7D52E
:100CA0000EE0C0F800A0FFF78FFD064605E082E0E9
:100CB000FFF78AFD801B02287DD838688007F7D4AB
:100CC0002078400768D5DFF8CCB100270BF13C0B4A
:100CD000DBF80000C0000BD4DBF8001041F08051BD
:100CE000CBF80010DBF80000012700F080500090E6
:100CF0006B4E3068C00510D4306840F480703060AE
:100D0000FFF762FD009005E0FFF75EFD0099401AD5
:100D1000022850D83068C005F6D55E4EA0686C3603
:100D200001280FD00528306810D020F00100306075
:100D3000306820F004003060A068B8B1FFF744FDCF
:100D400000900FE0306840F00100F4E740F004004C
:100D50003060F7E7FFF738FD0099411A41F288301B
:100D6000814266D830688007F4D50EE0FFF72CFD8D
:100D7000009007E0FFF728FD0099411A41F2883002
:100D8000814256D830688007F4D42FB1DBF80010C8
:100D900021F08051CBF80010A069C8B33D49091D6E
:100DA0000968C1F3810102294AD00228504607D0C0
:100DB000C8F8600000E03CE0FFF706FD04463BE0B9
:100DC0004746C8F86000FFF7FFFC064605E000BF95
:100DD000FFF7FAFC801B02282BD828688001F7D483
:100DE000D4E907010843A16A2E4A490802EB0141F0
:100DF000626A41EA8211084394F82C1040EA0161CA
:100E0000C9F8001001203866FFF7DEFC044606E052
:100E10003EE000BFFFF7D8FC001B022809D8286875
:100E20008001F7D534E000BFFFF7CEFC001B02289D
:100E300002D90320BDE8F88F28688001F4D427E0A8
:100E40000128F7D0D9F80000E26900F4800191424E
:100E50001CD1226A00F03F01914217D147F6C071C0
:100E6000626A0140B1EB821F10D1A26A4FF0FF33DA
:100E700000F4403103EB5202B1EB024F06D194F87B
:100E80002C1000F07060B0EB016F01D00120D1E7B1
:100E90000020CFE70438024000004742800E47425E
:100EA000007000400000FFFF7047704710B504005D
:100EB00003D094F83D0010B107E0012010BD0020E0
:100EC00084F83C00204600F01EF8022084F83D0023
:100ED000211D206800F07AF9012084F8460084F88A
:100EE0003E0084F83F0084F8400084F8410084F814
:100EF000420084F8430084F8440084F8450084F8F4
:100F00003D00002010BD704790F83D10012901D030
:100F100001207047022180F83D100168CA6842F044
:100F20000102CA6000680E4988420ED0B0F1804FBD
:100F30000BD00C49884208D00B49884205D00B4998
:100F4000884202D00A49884204D1816801F0070131
:100F5000062903D0016841F00101016000207047BB
:100F6000000001400004004000080040000C004068
:100F700000400140704770B50446006801694FF0B9
:100F80000005C943890715D4C168C943890711D42D
:100F9000E91E0161012020772068806980072046D2
:100FA00002D0FFF7E7FF04E000F098F8204600F0D9
:100FB00096F8257720680169C943490717D4C168A5
:100FC000C943490713D46FF004010161022020775F
:100FD0002068806910F4407F204602D0FFF7CAFFE6
:100FE00004E000F07BF8204600F079F825772068CF
:100FF0000169C943090716D4C168C943090712D456
:101000006FF008010161042020772068C069800723
:10101000204602D0FFF7AEFF04E000F05FF8204664
:1010200000F05DF8257720680169C943C90617D427
:10103000C168C943C90613D46FF0100101610820CB
:1010400020772068C06910F4407F204602D0FFF767
:1010500091FF04E000F042F8204600F040F82577C8
:1010600020680169C943C90708D1C168C943C907D4
:1010700004D1891E0161204600F032F82068016920
:10108000C943090609D4C168C943090605D46FF0EC
:10109000800101612046FFF707FF20680169C9430D
:1010A000490609D4C168C943490605D46FF0400117
:1010B0000161204600F01EF820680169C9438906D5
:1010C0000BD4C168C943890607D46FF020010161C0
:1010D0002046BDE87040FFF7E8BE70BD704770471E
:1010E00000680349884201D1FFF774BB70470000D4
:1010F000000001407047FEE7FEE7FEE7012000F038
:1011000013F9FBE710B5502080F31188BFF34F8F20
:10111000BFF36F8F00F0E2FF18B104494FF0805029
:101120000860002080F3118810BD000004ED00E08D
:1011300010B592B030216846FFF7EAF914210CA8E7
:10114000FFF7E6F918480024016841F0805101607A
:10115000006800F0805011901448016821F440416B
:1011600041F4004101600068069400F44040119091
:101170000220009001200390102004906846FFF7A1
:10118000DDFC08B172B6FEE70F20CDE90C040E9429
:101190000F9400210CA81094FFF7D4FB002801D075
:1011A00072B6FEE712B010BD403802400070004039
:1011B0000248016841F470010160704788ED00E069
:1011C0000148FFF7D8BE0000D4020020F0B5026845
:1011D0001D4B1E4C9F031E4D1E4E984207D0B84219
:1011E00005D0A04203D0A84201D0B04204D122F0E1
:1011F000700C4A6842EA0C02984210D0B8420ED0F5
:10120000A0420CD0A8420AD0B04208D0124CA04252
:1012100005D0124CA04202D0114CA04203D122F4BE
:101220004074CA6822434C6922F080022243026063
:101230008A68C2620A688262984201D109690163C0
:1012400001214161F0BD00000000014000040040A8
:1012500000080040000C00400040014000440140F4
:1012600000480140FEE70907090E002804DB00F1F1
:10127000E02080F80014704700F00F0000F1E0203B
:1012800080F8141D7047000090B0FFF7ABFAFFF72D
:101290004FFF14216846FFF73BF91C480024016802
:1012A00041F0010101600068194E00F001004FF4A7
:1012B00000750E90224629463046FFF77FFA6810E7
:1012C000CDE90004694630460294FFF787F9012012
:1012D0000095CDE90104694630460394FFF77EF995
:1012E0000C9401210CA80D9400F02AF8094C1C2242
:1012F0000949606005A8FFF7D9F8002105A800F0AA
:101300003EF8206000F017F8FEE700003038024099
:101310000000024000000020842300080146002055
:10132000842900D0C81C704710B500B9012000F016
:10133000BBFB002010BD10B500F002FC002010BD6A
:1013400038B543684BB1012909D103200022009030
:101350001146012000F0FBFC38BD012901D000201E
:1013600038BD03220021012000F0D0FC040004D08D
:1013700000231A46194600F061FD204638BD7FB5AE
:101380000D4604464169B0F9080081B1A16971B107
:10139000FFF7C4FFD4E905128DE80700D4E9001077
:1013A0002B46226900F061FE039004B070BDFFF788
:1013B000B5FF03A9CDE90001208A2B4682B2D4E90A
:1013C000001000F025FE012801D00020EDE7039871
:1013D000EBE700002DE9F041184C0F460546E668A2
:1013E0002068001D00F098FA38B9206890F82C1099
:1013F00001208840216981432161681C07D137B1F0
:101400002168BDE8F0410E48091D00F0C9BA206806
:101410003544B5424560216805D2A06BBDE8F04176
:10142000091D00F0A5BA606B091D00F0A1FAA06AC1
:10143000854200D2A562BDE8F081000018000020BE
:10144000F80300202DE9F041054600F0B5FA2E4CD6
:10145000A068401CA06020682C4F10B1606940B3A8
:101460002DE02560A068012829D1002606EB860022
:1014700007EB800000F06EFA761C072EF6D32348A7
:101480008C3000F067FA2148A03000F063FA1F4862
:10149000B43000F05FFA1D48C83000F05BFA1B481A
:1014A000DC3000F057FA19488C3060631430A063C8
:1014B00005E02068E96AC06A884200D82560606A51
:1014C000401C6062E96A0120226988401043206163
:1014D00001EB810007EB8000291D00F061FA00F0AC
:1014E0008BFA606900280CD02068E96AC06A8842DB
:1014F00007D207494FF080500860BFF34F8FBFF30A
:101500006F8FBDE8F0810000180000201C03002050
:1015100004ED00E02DE9F041856B174604460026F6
:10152000026C82B1C7B1E068FEF77BFFE168206C16
:10153000091AE1602268914202D2A168081AE060AB
:10154000022F16D017E02068A8B9A06800F02CFE82
:1015500006460020A0600EE06068FEF762FF216C86
:10156000606808446060A168884204D320686060B5
:1015700001E005B16D1E6D1CA5633046BDE8F0812C
:1015800010B5044690F8510058B101280CD002283B
:101590000FD0502080F31188BFF34F8FBFF36F8FB0
:1015A000FEE7206B00F03CFA2046BDE8104000F05A
:1015B00037BA10BD10484FF47051420706D0C01D15
:1015C0000D4920F00700411AC1F570510B4A002364
:1015D0000144C2E900030839183A21F007011160FB
:1015E0004B600B600B1AC0E9001393604FF0004092
:1015F00053605061704700000C0400206C00002014
:10160000144E154CA6F1C8074FF08058DFF84C90E7
:1016100012E000BF00F0D0F9F068C568281D00F0A6
:101620007BF9A068401EA0606068401E606000F00A
:10163000E3F92846FFF7A4FF60680028EAD138687C
:101640000128F9D9C9F80080BFF34F8FBFF36F8F1E
:10165000F2E70000E40300201800002004ED00E0A1
:101660000346009829B10260C0E90F31012100F062
:10167000A1BB0060F8E72DE9F0479A46DDE909844F
:1016800081466FF00303206B03EB82021044089E37
:1016900020F00707780707D0502080F31188BFF3A8
:1016A0004F8FBFF36F8FFEE7002561B10020231835
:1016B0000A5C83F834200A5C12B1401C1028F6D36F
:1016C00084F8435001E084F83450072E00D30626F6
:1016D000E662C4E91165201D00F047F904F1180025
:1016E00000F043F92461C6F107006462A061E5647B
:1016F00084F8505052464946384600F0F7F82060CA
:10170000B8F1000F01D0C8F80040BDE8F087000034
:1017100030B5114900E011460A688242FBD34B689C
:101720005C18844203D14068184448600846436806
:101730001C18944209D1084C183C2468A24209D0D4
:1017400052681A4442600A6812680260814200D0FE
:10175000086030BD0460F9E76C0000200648416B6A
:10176000096829B1416BC968C968496881627047D5
:101770004FF0FF31FAE700001800002008484068E9
:10178000401C4FF0500080F3118804D0BFF34F8FFE
:10179000BFF36F8FFEE7BFF34F8FBFF36F8FFEE78F
:1017A000740000202DE9F041044600F005F994F999
:1017B000455004F1240609E0606A48B1304600F063
:1017C0003FFD08B100F09EF96D1E6DB2002DF3DCF7
:1017D0004FF0FF3684F8456000F00EF900F0ECF8A9
:1017E00094F9445004F1100709E0206948B13846E3
:1017F00000F026FD08B100F085F96D1E6DB2002DD8
:10180000F3DC84F84460BDE8F04100F0F5B8000076
:101810002DE9F0410546002700F0C8F9324E306846
:1018200008B9FFF7C7FE706905424ED1C5B3083548
:1018300068070ED005F00700C0F1080005446807EE
:1018400007D0502080F31188BFF34F8FBFF36F8F05
:10185000FEE72DB37068854237D82348183001461B
:101860000C6801E020460C466168A94202D221685A
:101870000029F7D131688C4227D0076821680160C0
:1018800060680837411B10290FD96019420708D03A
:10189000502080F31188BFF34F8FBFF36F8FFEE7A7
:1018A00013E041606560FFF733FF61687068401ABC
:1018B0007060B268904200D2B0607069014300204D
:1018C000C4E90001F068401CF06000F0F3FC780708
:1018D00007D0502080F31188BFF34F8FBFF36F8F75
:1018E000FEE73846BDE8F0815400002010B5031F24
:1018F0004FF080741C601B1F21F001011960191F3B
:10190000044B0B6014390A60091F6FF0020244385F
:101910000A6010BD7D170008D0E9013201699A60A4
:10192000D0E901235A604A68824201D182684A6044
:10193000002202610868401E0860086870470000C5
:10194000034B036003F1540008608020106070476F
:101950008000002000F108014FF0FF32C0E90112C1
:10196000C160016100210160704700210161704781
:1019700030B50B685A1C02D000F1080202E002697F
:1019800004E02246546825689D42FAD953684B60AA
:1019900099608A60516008610168491C016030BD2E
:1019A00042684A6093688B609368596091600861EF
:1019B0000168491C01607047502080F31188BFF313
:1019C0004F8FBFF36F8F0A494868401C4860012859
:1019D0000CD10848006810F0FF0F07D0502080F3AA
:1019E0001188BFF34F8FBFF36F8FFEE77047000082
:1019F0007400002004ED00E00849486828B1401E4A
:101A0000486001D180F311887047502080F311881D
:101A1000BFF34F8FBFF36F8FFEE70000740000200D
:101A200070B500282AD0164DA0F1080460686969D5
:101A3000084207D1502080F31188BFF34F8FBFF3C6
:101A40006F8FFEE722683AB1502080F31188BFF310
:101A50004F8FBFF36F8FFEE78843606000F0A6F8FA
:101A600060686968084468602046FFF751FE28698D
:101A7000401C2861BDE8704000F01CBC70BD000037
:101A8000540000204FF0E0200021016181610549F0
:101A90004FF47A720968B1FBF2F1491E41610721E6
:101AA000016170471400002010B5020014D00F48E7
:101AB000006B38B1502080F31188BFF34F8FBFF314
:101AC0006F8FFEE700F072F800211046FFF782FCEE
:101AD00000F0F0FB002807D105494FF08050086066
:101AE000BFF34F8FBFF36F8F10BD000018000020B1
:101AF00004ED00E002490A6A0260C968416070476B
:101B00001800002001490120C8617047180000201A
:101B100010B50C4650B1094909681831FFF728FF84
:101B20002046BDE810400121FFF754BC502080F34F
:101B30001188BFF34F8FBFF36F8FFEE718000020AF
:101B400010B586B00024039405AA04A903A8049440
:101B5000FFF7F6FEDDE903010094CDE90110002353
:101B60000EA11048059A00F080FA0F490028C862BB
:101B700011D0502080F31188BFF34F8FBFF36F8FC8
:101B80004FF0FF30886201204861CC6006B0BDE8AC
:101B9000104000F041B806B010BD000049444C456B
:101BA0000000000001160008180000200248016B28
:101BB000491C016370470000180000201448016BA5
:101BC00011B10121C16170470021C1610169B1FA00
:101BD00081F1C1F11F0101EB81020E4951F8223060
:101BE0006BB101EB820101F108034A6852684A6057
:101BF0009A4201D152684A60D16801607047502012
:101C000080F31188BFF34F8FBFF36F8FFEE70000A3
:101C1000180000201C0300201CB537480168374A13
:101C2000914207D1502080F31188BFF34F8FBFF34B
:101C30006F8FFEE700683149491E884207D1502066
:101C400080F31188BFF34F8FBFF36F8FFEE72C49EE
:101C500008780190FF20087008788DF800009DF842
:101C600000009DF8002000F0F000904207D05020C6
:101C700080F31188BFF34F8FBFF36F8FFEE79DF89E
:101C80000000204C00F0500020700720A06005E00C
:101C90009DF8002052008DF80020401E9DF8002085
:101CA0001206F5D4A060032807D0502080F31188D5
:101CB000BFF34F8FBFF36F8FFEE74FF44070A0600C
:101CC000019808700C482030016841F470010160EF
:101CD000016841F070410160FFF7D4FE00206060B0
:101CE000FEF7CCFA0848016841F040410160FEF778
:101CF000B1FA00201CBD000000ED00E071C20F41F0
:101D000000E400E07400002034EF00E0F8B517466E
:101D10000E46050013D005FB06F04830FFF778FDAE
:101D200004000AD0002084F8460004F148023B4633
:101D3000314628460094FFF793FC2046F8BD50201A
:101D400080F31188BFF34F8FBFF36F8FFEE738B575
:101D5000049D18B153B1CAB181B120E0502080F385
:101D60001188BFF34F8FBFF36F8FFEE7502080F3D2
:101D70001188BFF34F8FBFF36F8FFEE7502080F3C2
:101D80001188BFF34F8FBFF36F8FFEE739B150203B
:101D900080F31188BFF34F8FBFF36F8FFEE74824A6
:101DA0001C46012384F846302B460094FFF758FC6C
:101DB000204638BD70B50D46040025D0FFF7FCFD68
:101DC000D4E90F20216802FB0011A1600021A1636A
:101DD000216861600A46D4E90F01401E00FB012121
:101DE000E16021464FF0FF3001F8440F487004F1E4
:101DF00010008DB1FFF7AEFD04F12400FFF7AAFD3E
:101E0000FFF7FAFD012070BD502080F31188BFF369
:101E10004F8FBFF36F8FFEE721690029F0D000F0EC
:101E20000FFA0028ECD004494FF080500860BFF34F
:101E30004F8FBFF36F8FE3E704ED00E02DE9FF471D
:101E400082B01D468A464FF00008040003D0BAF164
:101E5000000F08D011E0502080F31188BFF34F8F9E
:101E6000BFF36F8FFEE7206C38B1502080F31188EC
:101E7000BFF34F8FBFF36F8FFEE7022D0AD1E06BE8
:101E8000012807D0502080F31188BFF34F8FBFF394
:101E90006F8FFEE700F014F93F4F4FF000094FF04D
:101EA000805648B9049838B1502080F31188BFF3A8
:101EB0004F8FBFF36F8FFEE7FFF77EFDA06BE16BE7
:101EC000884207D3022D05D00498D0B1B8F1000F95
:101ED0001AD01EE02A4651462046FFF71BFB616AD6
:101EE00019B104F1240000F0ABF920B13E60BFF35A
:101EF0004F8FBFF36F8FFFF77FFD012006B0BDE866
:101F0000F087FFF779FD22E06846FFF7F3FD4FF019
:101F10000108FFF771FDFFF749FEFFF74DFD94F94A
:101F20004400401C01D184F8449094F94500401CC1
:101F300001D184F84590FFF75FFD04A9684600F0E1
:101F40002DF830B12046FFF72DFC00F0B3F900204A
:101F5000D4E7FFF731FDA06BE16B884213D1FFF7A7
:101F60004BFD04F110000499FFF7D2FD2046FFF766
:101F700019FC00F09FF900289ED13E60BFF34F8FFF
:101F8000BFF36F8F98E7FFF737FD2046FFF70AFC96
:101F900000F090F990E7000004ED00E02DE9F04139
:101FA0000C46050011D0C4B1FFF706FD174BDA68E7
:101FB0006E682068911B471C17D02F681B6A9F42D0
:101FC00019D0964217D8012410E0502080F31188D0
:101FD000BFF34F8FBFF36F8FFEE7502080F3118860
:101FE000BFF34F8FBFF36F8FFEE70024FFF704FDB1
:101FF0002046BDE8F081884205D9401A2060284675
:10200000FFF778FDF1E700202060DCE718000020F2
:102010002DE9FF5F8346DDE90E87994616468A461D
:102020009000FFF7F5FB05001CD05420FFF7F0FBF4
:10203000040014D00020256384F85100CDE902404B
:10204000CDE900874B46324651465846FFF713FB11
:102050002046FFF7F7F9012004B0BDE8F09F2846BD
:10206000FFF7DEFC4FF0FF30F6E7F0B585B0DDE9B5
:102070000B640A9DA6B1DCB15427009726630226A3
:1020800084F85160002604AFCDE90246CDE900573F
:10209000FFF7F1FA2046FFF7D5F9049805B0F0BD37
:1020A000502080F31188BFF34F8FBFF36F8FFEE78F
:1020B000502080F31188BFF34F8FBFF36F8FFEE77F
:1020C0000548416919B1006B18B100207047012023
:1020D0007047022070470000180000202DE9F041F1
:1020E0002F4C0026206B28B1A069401CA06130460F
:1020F000BDE8F081E5686D1CE56013D1606B006898
:1021000038B1502080F31188BFF34F8FBFF36F8F2A
:10211000FEE7606BA16B6163A063206A401C2062D4
:10212000FFF71CFBA06ADFF87C80854209D3606B57
:102130000068A0B1606BC068C7687868854211D23A
:10214000A0622068C06A00EB800158F821000128D5
:1021500000D90126E0690028C9D00126C7E74FF061
:10216000FF30EDE7381DFFF7D7FBB86A18B107F16C
:102170001800FFF7D1FBF96A01202269884010435B
:10218000206101EB810108EB8100391DFFF708FC9C
:10219000F86A2168C96A8842C9D30126C7E70000E6
:1021A000180000201C03002070B504004FF000014F
:1021B00040D0214D2868844207D0502080F31188F8
:1021C000BFF34F8FBFF36F8FFEE7A06C38B1401E97
:1021D000A064636CE26A9A422CD040B12AE050209D
:1021E00080F31188BFF34F8FBFF36F8FFEE7201D81
:1021F000FFF792FB114A012150B9E06A00EB80031E
:1022000052F8233023B92B6901FA00F083432B6184
:10221000606CE062C0F10700A061E06A2B69814058
:102220001943296100EB800002EB8000211DFFF7BC
:10223000B7FB0121084670BD180000201C030020D8
:102240002DE9F041C068C468ACB104F1180007463C
:10225000FFF762FB154D286B0126A0B139461448E3
:10226000FFF79EFBE06A2968C96A88421CD90120F1
:10227000EE61BDE8F081502080F31188BFF34F8FED
:10228000BFF36F8FFEE7201DFFF746FBE16A2A6967
:1022900006FA01F01043286101EB81000449B439CA
:1022A00001EB8000211DDBE70020E2E718000020A1
:1022B000D00300202DE9F0472C4D00242746286B41
:1022C00038B1FFF779FB286B401E2863286B40B1BB
:1022D00046E0502080F31188BFF34F8FBFF36F8F1C
:1022E000FEE7A968224E0120D1B3A6F1B4098046C9
:1022F0003068E8B1F068C46804F11800FFF70CFB1F
:10230000201DFFF709FBE06A2A6908FA00F1114372
:10231000296100EB800109EB8100211DFFF740FBE3
:10232000E06A2968C96A8842E2D3C5F81C80DFE701
:102330000CB1FFF713FAAC6944B14646FFF7CEFE85
:1023400000B1EE61641EF9D10020A861E86938B1DE
:102350000849012738070860BFF34F8FBFF36F8F1D
:10236000FFF74AFB3846BDE8F08700001800002060
:10237000D003002004ED00E04FF04070E1EE100AC1
:1023800070470000B8230008FD100008000000009E
:1023900000000000800000000000000000000000BD
:1023A0000000000000000000010203040607080905
:1023B000000000000102030464656661756C7454DA
:1023C00061736B00E423000800000020800000001F
:1023D000D00100086424000880000020F0450000BF
:1023E000EC010008000000000000000001000000F7
:1023F00010000000000000000024F40000000000B5
:1024000000000000000000000000000000000000CC
:1024100000000000000000000000000000000000BC
:1024200000000000000000000000000000000000AC
:10243000000000000000000000000000000000009C
:10244000000000000000000000000000000000008C
:10245000000000000000000000000000AAAAAAAAD4
:042460000000000078
:040000050800019559
:00000001FF
